:020000040800F2
:10000000501100209D010008350D0008130900085B
:10001000310D0008FF060008114200080000000032
:10002000000000000000000000000000910F000828
:100030000307000800000000E90D0008B5100008E3
:10004000B7010008B7010008B7010008B7010008B0
:10005000B7010008B7010008B7010008B7010008A0
:10006000B7010008B7010008B7010008B701000890
:10007000B7010008B7010008B7010008B701000880
:10008000B7010008B7010008B7010008B701000870
:10009000B7010008B7010008B7010008B701000860
:1000A000B7010008B7010008B7010008B701000850
:1000B0002511000835110008B7010008B701000834
:1000C000B7010008B7010008B7010008B701000830
:1000D000B7010008B7010008B7010008B701000820
:1000E000B7010008B7010008B7010008B701000810
:1000F000B7010008B7010008B7010008B701000800
:10010000B7010008B7010008B7010008B7010008EF
:10011000B7010008B7010008B7010008B7010008DF
:10012000B7010008B7010008B7010008B7010008CF
:10013000B7010008B7010008B7010008B7010008BF
:10014000B7010008B7010008B7010008D90D000881
:10015000B7010008B7010008B7010008B70100089F
:10016000B7010008B7010008B7010008B70100088F
:10017000B7010008B7010008B7010008B70100087F
:10018000B7010008B7010008DFF80CD000F01EFA34
:1001900000480047114400085011002006488047DD
:1001A00006480047FEE7FEE7FEE7FEE7FEE7FEE75C
:1001B000FEE7FEE7FEE7FEE7BD1000088901000844
:1001C00040EA01039B0703D009E008C9121F08C0D9
:1001D000042AFAD203E011F8013B00F8013B521E59
:1001E000F9D27047D2B201E000F8012B491EFBD2D0
:1001F00070470022F6E710B513460A460446194632
:10020000FFF7F0FF204610BD30B505462A460B46E5
:1002100012F8010B13F8014B08B1A042F8D01CB141
:10022000002802D06D1CF1E7284630BD10B5044609
:1002300004E00B7800F8013B03B1491C521EF8D2D0
:10024000204610BD421C10F8011B0029FBD1801A6A
:1002500070472DE9FE4F804681EA0300C00F0C462F
:10026000009021F0004123F00045B8EB0200A941C5
:1002700005D24046214690461C460B46024623F0D6
:100280000040104347D0270DC7F30A00C3F30A51BB
:100290000290401A019040286BDAC3F3130040F437
:1002A000801B0098924620B10023D2EB030A63EB37
:1002B0000B0B01985946C0F14002504600F0D0F8AF
:1002C00006460D4650465946019A00F0D8F810EB04
:1002D00008006141002487EA115284EAE7731A4357
:1002E00040D0009A62B3019A012A4FEA075215DC06
:1002F000001B61EB02014FF0004202EA0752CDE918
:100300000042001C41F5801132462B4600F00FF9E7
:1003100003B0BDE8F08F40462146F9E7001B61EBD2
:100320000201001C41F5801300185B412018A2F562
:10033000001747EB030140EAD570B6196D4111E093
:100340006D084FEA360645EAC0754FEA0752001BB2
:1003500061EB0201001C41F5801149084FEA3000B1
:100360000019514132462B4603B0BDE8F04F00F072
:10037000CFB80098012240000023D0EB020263EBCB
:10038000E073009821464FEAE074B8EB000061EB9F
:100390000401E9E783F000435BE781F0004158E79F
:1003A00000F0004230F000400AD0C10D01F560714C
:1003B000C0F3160042EA0151C208400711437047DA
:1003C000002001467047000030B5041E71F10004A2
:1003D00004DB4FF00044404264EB0101141E73F152
:1003E000000405DB1C464FF00043524263EB04035C
:1003F0008B4208BF824230BD30B5041E71F100044B
:1004000004DB4FF00044404264EB0101141E73F121
:10041000000405DB1C464FF00043524263EB04032B
:10042000994208BF904230BD01F0004330B421F042
:10043000004150EA010206D00A0DA2F56072C1F334
:100440001301002A02DC30BC00207047440F44EA4C
:10045000C104C100E01830BC00EBC25000F021B86C
:10046000202A04DB203A00FA02F100207047914074
:10047000C2F1200320FA03F3194390407047202A69
:1004800006DBCB17203A41FA02F043EAE07306E0BC
:1004900041FA02F3D040C2F12002914008431946CC
:1004A00070470029A8BF7047401C490008BF20F0D2
:1004B0000100704710B4B0FA80FC00FA0CF050EA6A
:1004C000010404BF10BC704749B1CCF1200421FAEB
:1004D00004F411FA0CF118BF012121430843A3EBE6
:1004E0000C01CB1D4FEA00614FEA102042BF0020F3
:1004F00010BC704700EBC35010440029A4BF10BCCF
:100500007047401C490008BF20F0010010BC704734
:1005100010B5141E73F1000408DA401C41F100010B
:1005200092185B411A4301D120F0010010BD2DE962
:10053000F04D92469B4611B1B1FA81F202E0B0FA59
:1005400080F220329046FFF78BFF04460F4640EAC8
:100550000A0041EA0B0153465A46084313D011469C
:1005600053EA010019D0C8F14002504600F040F8AB
:1005700005460E46504659464246FFF771FF08436E
:1005800005D0012004E020463946BDE8F08D00206A
:10059000054346EAE0762C4337430A986305E40AAC
:1005A000A0EB08000022FD0A44EA47540A3002D5B5
:1005B00000200146E9E7010510196941DDE9084518
:1005C00000196941BDE8F04DA2E70000064C074D57
:1005D00006E0E06840F0010394E807009847103413
:1005E000AC42F6D3FFF7D4FD284C0008484C000875
:1005F000202A04DB203A21FA02F00021704721FA78
:1006000002F3D040C2F120029140084319467047DE
:1006100070B58C1810F8015B15F0070301D110F8C4
:10062000013B2A1106D110F8012B03E010F8016BF1
:1006300001F8016B5B1EF9D12B0705D40023521E74
:100640000DD401F8013BFAE710F8013BCB1A921CDC
:1006500003E013F8015B01F8015B521EF9D5A142DA
:10066000D8D3002070BD000070B505460C46084880
:100670000560204600F00EF800BF0548006800281D
:10068000FBD100214FF0804000F0B7FD70BD0000AD
:10069000DC0100203EB5044600214FF0804000F010
:1006A000ACFD00220121880700F0C4FD022C02D11C
:1006B0000B20019004E0012C02D142F6DF60019092
:1006C0000520ADF800000020ADF80800ADF80200EC
:1006D00069464FF0804000F0B7FD0121880700F027
:1006E00089FD0121880700F079FD0122114690075C
:1006F00000F0A0FD0121880700F07FFD3EBD00BF96
:10070000FEE7704701B504490098086000BF024841
:1007100000680028FBD108BD8401002008B51D2019
:100720008DF8000000208DF8010001208DF80200F6
:100730008DF80300684600F0FFFA08BDF0B50A46E0
:1007400000210023002400BF3DE0012505FA01F34C
:10075000156805EA03049C4234D105684F0003265E
:10076000BE40B543056015794E00B5400668354377
:1007700005601579012D02D01579022D16D18568F5
:100780004F000326BE40B543856055794E00B54005
:10079000866835438560456801268E40B5434560CF
:1007A000456896798E40B6B235434560C5684F00BE
:1007B0000326BE40B543C560D5794E00B540C66836
:1007C0003543C560491C1029BFD3F0BDF0B50023E7
:1007D00000244D07ED0E02FA05F3CE1000F12005BE
:1007E00055F826504E07F70E0F26BE40B543CF10E2
:1007F00000F1200646F82750CE1000F1200555F8EC
:10080000265045EA0304CE1000F1200545F82640A5
:10081000F0BD0246002013690B400BB1012000E03F
:1008200000207047418370470183704742694A4006
:10083000426170470AB1018300E04183704701467D
:100840004869806880B2704708B50146D1F8CC008D
:10085000006800900098C0F3414008BD024602F5D0
:100860006370405C7047024602F29B30405C704708
:10087000024602F5547050F82100704770B50446E6
:100880000E4600250021C4F8101300BF0BE0002124
:1008900004F5457040F825103C3040F825103C30F8
:1008A0004155681CC5B20F2DF1DB0821A4F8B21325
:1008B0003146204602F014FD204602F01BF9204686
:1008C00001F0E2FF0121204602F072FD204602F015
:1008D0006EF8204602F067F9002070BD0146D1F89D
:1008E0001003704710B50446204602F0D8FC0020E3
:1008F00010BD70B504460D46002104F29B304155F1
:10090000113000EB451041612946204602F076FB8C
:1009100070BD00BFFEE7000070B504460D4645EA15
:10092000440003490880022003F088FC70BD0000E9
:100930001054004070B5024600240025002300201A
:10094000958A138B1B0445EA030626F07F4404EACC
:1009500001068E4201D1012000E0002070BD21B1CE
:10096000028842F00102028004E002884FF6FE7322
:100970001A400280704721B1028842F480720280DE
:1009800004E002884FF6FF631A400280704721B1ED
:10099000028842F40072028004E002884FF6FF539E
:1009A0001A400280704700002DE9FF4704460D46BB
:1009B0000026B1460427DFF8CC80A6884FF6C07029
:1009C0000640684600F062FADDF808802E48B8FB61
:1009D000F0F01FFA80F946EA0906A68020884FF653
:1009E000FE710840208000262849286888420CD8DB
:1009F00028684000B8FBF0F087B2042F00DA042723
:100A00003E4309F10100208427E0E8884BF6FF719E
:100A1000884206D1286800EB4000B8FBF0F087B2AE
:100A200009E0286800EBC00101EB0010B8FBF0F012
:100A300087B247F48047C7F30B0008B947F00107B6
:100A400047F4004006434FF4967009FB00F04FF462
:100A50007A7190FBF1F0401C2084A683208840F03E
:100A60000100208026884FF6F5300640A888698965
:100A7000084306432680A889298908432081BDE8C8
:100A8000FF87000000127A0040420F00A08601009C
:100A900000B587B00121480500F0C8F901214805DB
:100AA00000F0D4F900214FF4001000F0CFF901213B
:100AB000022000F09BF94020059002208DF81800DC
:100AC00003208DF8190001208DF81A008DF81B0005
:100AD00005A91848FFF732FE8020059005A91548A2
:100AE000FFF72CFE042206211248FFF76FFE0422B6
:100AF00007211048FFF76AFE0020ADF808004BF60A
:100B0000FF70ADF80A000020ADF80C004FF48060D3
:100B1000ADF80E000001ADF810004CF2503001901D
:100B200001A90548FFF740FF01210348FFF717FF20
:100B300007B000BD000402400054004070B50646F6
:100B40000C46154600F0C2F801213046FFF7E4FEDE
:100B5000012D1AD13F4800884FF6FF3108403D492A
:100B600008803C48183000880846008840F400702F
:100B70000880204600F090F803F04CFB35480088D0
:100B800040F480603349088062E0022D2ED1314864
:100B900000884FF6FF3108402E490880084600883B
:100BA00040F4006008802B4818300088042003F0CF
:100BB00045FB2848008840F40070264908802046FC
:100BC000641C00F069F8204600F066F803F022FB90
:100BD0002048008840F480601E490880084600884C
:100BE0004FF2FF7108401B49088031E01948183066
:100BF000008803E02046641C00F04EF828466D1E75
:100C00000328F7D8042003F019FB124800884FF698
:100C1000FF3108400F4908802046641C00F03CF872
:100C2000042003F00BFB0B48008840F400700949D6
:100C300008802046641C00F02FF8204600F02CF8B5
:100C400003F0E8FA0348008840F480600149088016
:100C5000002070BD005400402DE9F04107460C46CD
:100C600015461E4600F032F800213846FFF754FEC4
:100C700008480088074808380480042003F0DEFA9A
:100C8000324629463846FFF759FF0248083800889F
:100C9000BDE8F0811854004070B50446402003F0D0
:100CA000CDFA054625B9034800882070002070BDA4
:100CB0002846FCE71054004012B141F0010101E068
:100CC00001F0FE01018270470182704710B50548AE
:100CD000008840F4807003490880012003F0AEFAD8
:100CE00010BD0000005400400EB50121022000F0AC
:100CF0009DF84AF6C870ADF800000020ADF802007B
:100D00004FF4FA6001900020ADF808008DF80A0059
:100D10006946064800F098FA0121044800F06DFA8F
:100D200001221146014800F085FA0EBD0004004082
:100D300000BFFEE77047000070B5002100230F22BE
:100D4000C4781CB3174C246804F4E064C4F5E06470
:100D5000C4F30721C1F10404E3B20A4144789C4082
:100D6000E1B28478144021430C07210E0E4C057823
:100D70006155047804F01F050124AC4005786D111D
:100D8000AD0005F1E025C5F8004109E0047804F064
:100D90001F050124AC40054D0678761145F8264024
:100DA00070BD00000CED00E000E400E080E100E038
:100DB00002490143024A1160704700000000FA0531
:100DC0000CED00E0024A0A400243024B1A607047F1
:100DD00080FFFF1F08ED00E010B5024801F0C2F9E6
:100DE00010BD0000880200207047000029B1064AAB
:100DF00012680243044B1A6004E0034A12688243FB
:100E0000014B1A60704700003038024029B1064A91
:100E100012680243044B1A6004E0034A12688243DA
:100E2000014B1A60704700003438024029B1064A6D
:100E300012680243044B1A6004E0034A12688243BA
:100E4000014B1A60704700004038024029B1064A41
:100E500012680243044B1A6004E0034A126882439A
:100E6000014B1A60704700002038024029B1064A41
:100E700012680243044B1A6004E0034A126882437A
:100E8000014B1A607047000044380240F0B5002161
:100E900000220024022500260223324F3F6807F07B
:100EA0000C0121B1042905D0082937D105E02E4FC6
:100EB000076036E02C4F076033E02A4F3F1F3F6842
:100EC000C7F38056274F3F1F3F6807F03F036EB1BF
:100ED000254FB7FBF3F7DFF88CC0ACF1040CDCF85E
:100EE00000C0CCF3881C07FB0CF40CE01E4FB7FBD2
:100EF000F3F7DFF870C0ACF1040CDCF800C0CCF301
:100F0000881C07FB0CF4174F3F1F3F68C7F30147CE
:100F10007F1C7D00B4FBF5F7076002E0124F07600D
:100F200000BF00BF0F4F3F6807F0F00109090F4FE6
:100F30007A5C0768D74047600A4F3F6807F4E05182
:100F4000890A0A4F7A5C4768D7408760054F3F6837
:100F500007F46041490B054F7A5C4768D740C7608A
:100F6000F0BD0000083802400024F4005C020020BC
:100F700010B50446044A32F81410044A52F824000A
:100F8000FFF747FC10BD0000184C00085402002079
:100F9000704700000CB500200190009040480068A8
:100FA00040F480303E49086000BF3D48006800F4CE
:100FB000003000900198401C0190009818B90198E9
:100FC000B0F5A06FF1D13648006800F4003010B1E0
:100FD0000120009001E0002000900098012803D13A
:100FE00030482F49091D08602D484030006840F006
:100FF00080502B49403108602B48006820F4804025
:1010000029490860264808300068254908310860E9
:101010000846006808600846006840F48050086090
:101020001F48006840F080701D49086000BF1C48E0
:10103000006800F000700028F9D040F202701B49EF
:10104000086017480830006820F003001449083190
:1010500008600846006840F00200086000BF1048C1
:101060000830006800F00C000828F8D10C4808305F
:10107000006820F400000A49083108600C4808495B
:10108000843108600648006840F0806004490860C8
:1010900000BF0348006800F000600028F9D00CBDD4
:1010A000003802400854410700700040003C0240F4
:1010B0008040003010B500F009F910BD10B515489A
:1010C000006840F47000134908601348006840F05D
:1010D00001001149086000200F49083108600E48DE
:1010E00000680E4908400C4908600D48091D086059
:1010F000081F006820F48020091F086000200649AE
:101100000C310860FFF746FF4FF00060014980395D
:10111000086010BD88ED00E000380240FFFFF6FED9
:101120001030002410B5024801F084FB10BD00000F
:101130008802002010B501211E4800F06AF800283E
:1011400036D01D480068401C1B4908601B480068D9
:10115000401C1A4908601A480068401C1849086079
:10116000154800683F280CDB4FF480711548FFF7E5
:101170005DFB00201049086013480068401C1249BC
:1011800008601148006801280EDB1048006858B953
:101190000F480068012807D103F03AFA01200D49F1
:1011A000086000200C4908600121024800F022F884
:1011B00010BD000000040040D4010020B801002050
:1011C000BC01002000040240B4010020C401002042
:1011D0008801002090010020C001002021B1028878
:1011E00042F08002028004E002884FF67F731A40CA
:1011F00002807047CA430282704721B1028842F0E0
:101200000102028004E002884FF6FE731A40028059
:10121000704730B50246002000230024158A05EAF5
:101220000103958905EA010413B10CB1012000E026
:10123000002030BD1AB183890B43838102E083898A
:101240008B4383817047000000220288184B98422C
:101250000ED0184B98420BD0B0F1804F08D0164BEF
:10126000984205D0154B984202D0154B984204D1B4
:101270004FF68F731A404B881A43124B984207D08F
:10128000114B984204D04FF6FF431A400B891A4382
:1012900002804B68C3620B880385054B984202D0DD
:1012A000044B984201D18B7A0386012383827047D5
:1012B000000001400004014000040040000800401C
:1012C000000C00400010004000140040044800687A
:1012D00020B103480068401E0149086070470000C3
:1012E000840100202DE9F04106460D462C460127D9
:1012F000674890F88E000D2877D2DFE800F00722CB
:101300003643505C6977848EB3BCC200608D41F671
:10131000D10188420DD1A08DB0F5345F04D0A08DED
:1013200042F60151884204D10A20594981F88E00C1
:1013300006E00120564981F88E00FF2081F8100256
:10134000A2E02946304600F0F7F968B9504890F815
:101350001002012804DB02204D4981F88E0003E0D1
:101360000C204B4981F88E008EE0494B90330022CF
:101370002946304600F018FA18B90320444981F88C
:101380008E0081E0424BD03301222946304600F0E6
:101390000BFA18B904203E4981F88E0074E03D4BE9
:1013A00002222946304600F0FFF918B905203849D5
:1013B00081F88E0068E0374B4033032229463046DF
:1013C00000F0F2F918B90620314981F88E005BE08F
:1013D000304B803304222946304600F0E5F918B935
:1013E00007202B4981F88E004EE04CE0294BC0339A
:1013F00005222946304600F0D7F918B908202449BB
:1014000081F88E0040E02946304600F0E8F918B92E
:1014100009201F4981F88E0036E012222946304605
:1014200000F0ECFBE8B90B20194981F88E00A08D83
:101430000880608D41F6D10188420ED1A08DB0F5B3
:10144000345F04D0A08D42F60151884205D1A08DB1
:101450000A210F4A82F88E1003E00C200C4981F813
:101460008E0011E02946304600F00CF90B200849A7
:1014700081F88E0008E000270020054981F88F00E0
:1014800002E0042700E000BF00BF3846BDE8F0815D
:10149000B8080020C80900202DE9F0470546894614
:1014A0000126324890F88F0030B1012809D0022877
:1014B0004ED0032853D12CE001202C4981F88F0015
:1014C00000BF2A48C1782846FFF7CDF907462748CC
:1014D000C1782846FFF7C2F980462448C1782846DB
:1014E000FFF7C6F904462148B0F88C0000280FDD4C
:1014F0001E48C378B0F88C2000F14A01284600F05D
:10150000D6F900201949A1F88C00032081F88F003A
:1015100026E0164881782846FFF7A5F907461348C4
:1015200081782846FFF79AF9804610488178284646
:10153000FFF79EF904460D488378402200F10A0126
:10154000284600F084F90020084981F88F0007E060
:101550000020064981F88F00A1F88C0000E000BF50
:1015600000BF00263046BDE8F0870000B808002024
:101570002DE9F04704460F4615461E46DDE9088969
:10158000402221462348FEF751FE00212148903891
:1015900080F8CF1040223946D030FEF747FE0021B8
:1015A0001C48903880F80F114022294600F58870B9
:1015B000FEF73CFE00211748903880F84F1140227A
:1015C000314600F5A870FEF731FE00211148903831
:1015D00080F88F114022414600F5C870FEF726FEC4
:1015E00000210C48903880F8CF114022494600F580
:1015F000E870FEF71BFE00210648903880F80F12B5
:1016000000200449903981F88E00042081F88F0071
:10161000BDE8F0874809002070B504460D4600205B
:10162000114981F88E000846C07860B10846C1783B
:10163000204601F086FB0C48C178204600F061FA94
:1016400000200949C8700848807860B10648817850
:10165000204601F076FB04488178204600F051FADC
:1016600000200149887070BDB808002010B50246FE
:1016700000200023024CA4F88A30A4F88C3010BD5E
:10168000B80800207CB506460D462C4694F852005A
:1016900000F0800038B194F8520026494871B4F83F
:1016A0005400C88006E094F8520022490871B4F84A
:1016B0005400088194F85A0000F0800038B194F882
:1016C0005A001C494871B4F85C00C88006E094F8E0
:1016D0005A0018490871B4F85C000881154801796E
:1016E000304600F0A1F81349C870084641793046E9
:1016F00000F09AF80F498870084600890221CDE968
:1017000000102120035D94F820200A48C17830465B
:1017100000F07CFD0748C0880221CDE9001021209F
:10172000035D94F8202003488178304600F06EFD78
:1017300000207CBDB808002070B505460C46C021CD
:101740002175332161750021E182218302216183AA
:101750000223034A2146284600F001F970BD00002B
:10176000C80A0020014890F88F007047B808002090
:101770002DE9F04106460C4617460A488178304666
:10178000FFF776F805464DB13A4606490A3120463C
:10179000FEF716FD00200349A1F88A00A8B2BDE8B3
:1017A000F0810000B80800202DE9F04180460C4689
:1017B00016461D462846FEF745FD401C87B24021CF
:1017C0002175342161750021E182268367833B46C0
:1017D0002A462146404600F0C2F8BDE8F08170B5C7
:1017E00005460C4640212175352161750021E182B5
:1017F0002183618300231A462146284600F0AFF872
:1018000070BD000070B506460D46144622462946B6
:101810000448FEF7D5FC03484A38A0F88C40002065
:1018200070BD00000209002070B505460E4628462E
:1018300000F098F904464FF6FF70844205D046F454
:10184000004105F28C5020F81410E0B270BD2DE973
:10185000F04105460E4617461C46012105F56B7002
:1018600000EB4410817005F56B7000EB4410C6600E
:1018700005F56B7000EB4410076105F56B7000EB2C
:101880004410007E30B9002105F56B7000EB441068
:10189000017205E0022105F56B7000EB4410017246
:1018A00021462846FFF725F80020BDE8F0812DE904
:1018B000F04105460E4617461C46002105F56B70A3
:1018C00000EB4410817005F56B7000EB4410C660AE
:1018D00005F56B7000EB4410076105F56B7000EBCC
:1018E0004410407E28B905F56B7000EB441001727E
:1018F00005E0022105F56B7000EB441001722146F2
:101900002846FEF7F6FF0020BDE8F08101460122DF
:10191000C1F81023002070472DE9F04105460E461E
:1019200017461C46012105F56B7000EB44108170D1
:10193000022105F56B7000EB4410017205F56B7028
:1019400000EB4410C66005F56B7000EB44100761B6
:1019500021462846FEF7CDFF0020BDE8F0812DE9A5
:10196000F04180460C4615461E460127E0780128C6
:1019700002D0022820D108E032462946204600F055
:1019800094FE0220E070012717E0207F0D2805D18A
:101990000120E0700021217700270CE0207F0B2838
:1019A00003D10120E070022705E0207F0C2802D13E
:1019B0000120E070032700E000BF00BF3846BDE80B
:1019C000F0812DE9F04105460F4616461C460021E0
:1019D00005F56B7000EB4410817005F56B7000EB42
:1019E0004410C76005F56B7000EB441006612EB91A
:1019F000012105F56B7000EB4410417605F56B7025
:101A000000EB4410407E30B9002105F56B7000EB0F
:101A10004410017205E0022105F56B7000EB4410E3
:101A2000017221462846FEF764FF0020BDE8F081E0
:101A300070B505460E461446002105F56B7000EBA7
:101A400044108170032105F56B7000EB44100172A6
:101A500005F56B7000EB4410C660082105F56B704E
:101A600000EB4410016121462846FEF742FFC0B258
:101A700070BD0246022106E0002302F28C5020F8DD
:101A80001130481CC1B20829F6DB0020704770B540
:101A900005460C46002020706070A0700120E070A8
:101AA000012121774021A171002084F8200001212B
:101AB000212001552179284600F023F86179284634
:101AC00000F01FF8002070BD01460022C1F810236D
:101AD0000020704770B504460D46052D01D0042D39
:101AE00006D1D4F88010486C80470A20207007E0A7
:101AF000062D05D10A202070D4F880100868804790
:101B000070BD0246082909DA02F28C5030F8110043
:101B1000C0F30E0302F28C5020F811300020704701
:101B20002DE9F04780460C4616461D46DDE908972C
:101B300046F08001217506216175E58205F47F403C
:101B4000B0F5407F03D140F20941218301E000213B
:101B5000218367833B464A4621464046FFF7FFFE06
:101B6000BDE8F0870246002100BF0AE002F28C5077
:101B700030F8110000F4004008B908467047481CCE
:101B8000C1B20829F2DB4FF6FF70F7E710B5024645
:101B90000B88147823440B801378981810BD00002C
:101BA0002DE9FC4104460D461646002704F58870D1
:101BB0004FF4007300222946CDE900062046FFF7C6
:101BC000AFFFB0F1000814D106E004F58870C05DE5
:101BD0000949C855781C87B2B742F6DB04F588730B
:101BE00005F1500205F13E0105F13400009600F0C8
:101BF0005BFB4046BDE8FC814A0B00202DE9FC411F
:101C000004460D46164604F588704FF48073002292
:101C10002946CDE900062046FFF782FF071E06D1C0
:101C2000324604F5887105F1220000F0CBFB3846FE
:101C3000BDE8FC812DE9FC470446884615461E4652
:101C40000A9F04F5887045F4407300224146CDE9AF
:101C500000072046FFF764FFB0F1000905D13A46BE
:101C6000314604F5887000F0FCFB4846BDE8FC876F
:101C70002DE9F04106460C464FF0000800250021F2
:101C8000A174207F0C2876D2DFE800F0FD060F3D1E
:101C9000466576919AC0D7ED627904F11401304619
:101CA000FFF7C6FE02212177EEE061793046FEF7AC
:101CB000DAFD0546012D1FD1207D00F08007608BE5
:101CC00058B141F2883072490880802F02D1032137
:101CD00021770CE00521217709E032206C4908804A
:101CE000802F02D10921217701E007212177304699
:101CF000FEF7A5FD208205E0032D03D10B212177FE
:101D00000521A174C0E02379A2893046A168FFF7BC
:101D100003FE04212177B7E021793046FEF7A3FDC9
:101D20000546012D01D109212177042D02D16078CA
:101D300020700FE0032D02D10B2121770AE03046FD
:101D4000FEF77DFD218A401A51490988884201D950
:101D50000B21217798E00121627906F56B7000EB89
:101D6000421041766379A2893046A168FFF729FEC7
:101D70000621217788E086E061793046FEF773FD21
:101D80000546012D02D1072121770FE0042D04D152
:101D9000607820700C21217708E0022D02D1052106
:101DA000217703E0032D01D10B2121776CE023790A
:101DB000002211463046FFF7AFFD0821217763E08E
:101DC00021793046FEF74FFD0546012D04D160789C
:101DD00020700D21217718E0032D02D10B212177EE
:101DE00013E03046FEF72BFD218A401A2849098866
:101DF000884202D90B21217707E0042D05D16078B4
:101E000020700421A1744FF003083DE0617906F5CC
:101E10006B7000EB4110407E80F00101627906F5A5
:101E20006B7000EB42104176637900221146304618
:101E3000FFF7C7FD0A21217726E061793046FEF7DA
:101E400012FD0546012D04D1607820700D21217707
:101E500008E0022D02D10921217703E0032D01D1F1
:101E60000B21217710E0A07B401CC1B2A173022995
:101E700002DC0121217705E00821A174607820703F
:101E80004FF0020800E000BF00BF4046BDE8F0810F
:101E90008002002070B592B005460C460126A0785D
:101EA0000A287AD2DFE800F00528375D667A97B411
:101EB000EBF6082221462846FFF7A0FED8B994F891
:101EC0002910A1712846FEF70DFD0120A070A07910
:101ED0000021CDE90010617900231A46284600F060
:101EE0000FF9A0790021CDE90010217900231A46CD
:101EF000284600F005F9D0E0122221462846FFF7D7
:101F00007DFE38B9D4F88000C16904F12200884709
:101F10000220A070C1E001222146284600F09FFB6C
:101F2000F0B9022000F0A2FC0120A41CA077D4F894
:101F30007E10086A804703202070002000900190E6
:101F4000A27FA1780346284600F0DAF8002000902E
:101F50000190A27FA41E61790346284600F0D0F8C4
:101F60009BE0092221462846FFF71AFE08B9042003
:101F7000A07092E0E28E21462846FFF711FE58B984
:101F8000D4F8800004F1500204F13E01436A04F1E8
:101F9000340098470520A0707FE07DE094F8300081
:101FA00088B1FF20009094F8302002AB21462846EB
:101FB000FFF740FE70B9D4F88000816A02A8884714
:101FC0000620A07006E0D4F88000816A35A088471A
:101FD0000620A07061E094F8310088B1FF200090E5
:101FE00094F8312002AB21462846FFF723FE70B952
:101FF000D4F88000C16A02A888470720A07006E0D4
:10200000D4F88000C16A27A088470720A07044E068
:1020100094F8320058B3FF20009094F8322002ABBD
:1020200021462846FFF706FE00BB402202A91E48B3
:10203000FEF7C6F81C491D48FEF7E6F818B1012066
:102040001B49087002E00020194908701848007800
:10205000012804D000201749086017490860D4F807
:102060008000016B02A888470820A07006E0D4F821
:102070008000016B0BA088470820A0700DE094F849
:1020800039202146284600F0FDFA08B90920A07041
:1020900003E0FFE7002600E000BF00BF304612B0BB
:1020A00070BD00004E2F4100CA0A00200A0B00201C
:1020B0006C02002088010020C40100202DE9F041BD
:1020C00006460F4614461D46DDF81880304600F0DF
:1020D00065FB002000F016FB21463046FFF7D7FCD9
:1020E000E567C4F8808039463046FEF7C7FBD4F870
:1020F000801008688047304600F03AFBBDE8F08168
:102100002DE9F04704460D4617461E46DDE90898BE
:1021100027B104F56B7000EB4510077004F56B7088
:1021200000EB4510C088404508D0B8F1000F05D03D
:1021300004F56B7000EB4510A0F8068004F56B7099
:1021400000EB4510C078B04205D026B104F56B70A5
:1021500000EB4510C6702946204600F033FE0020F3
:10216000BDE8F08738B505460024002000902846D9
:1021700001F053F8002847D0284601F058F80090A5
:10218000009808B9002038BD0098C0F3C00018B10D
:10219000284602F007F804430098C0F3001018B175
:1021A000284601F04CFF04430098C0F3401018B1DA
:1021B000284601F086FD04430098C0F3806018B102
:1021C000284601F0A5FE04430098C0F3406018B112
:1021D000284601F04EF904430098C0F3006018B19E
:1021E000284601F005FE04430098C0F3407018B182
:1021F000284601F005F904430098C0F3405018B197
:10220000284601F013F904432046BCE72DE9F047C6
:1022100004460D4617461E46DDE9088904F28C5037
:1022200010F8150000F07F0104F56B7000EB45100D
:10223000417004F28C5010F81500C0F3C01104F581
:102240006B7000EB4510817004F56B7000EB45106E
:10225000077004F56B7000EB451080F8058004F5FD
:102260006B7000EB4510A0F8069004F56B7000EB66
:102270004510C670002104F56B7000EB4510017627
:1022800004F56B7000EB451041762EB9012104F581
:102290006B7000EB451001712946204600F092FD5D
:1022A0000020BDE8F08700002DE9F04F85B006461C
:1022B000894692461D462C460027B84600BF28781E
:1022C000307068787070A978E87801EB0020708031
:1022D0002879307168797071A879B071E879F071F6
:1022E000287A30720E98092864DD09200090307930
:1022F00002285ADCBB4653E069462046FFF746FCFD
:102300000446607804284BD1A07847B207EBC70099
:1023100000EB090BE078032842DA214602A800F01E
:102320008DF84FF000089DF80C00022838DC32E0F0
:1023300069462046FFF72AFC0446607805282AD122
:102340000AEB071000EBC80001901C480078B84267
:1023500006D01A490F7002A9584600F06FF80CE039
:102360002179607901EB002015490988884200DA5B
:1023700015E002A9584600F061F82146019800F0E6
:102380004DF82179607901EB00200D49088008F1B2
:1023900001004FFA80F89DF80C004045C8DC00BFF2
:1023A0007088BDF800108842A6DC0020044908802F
:1023B0000249087005B0BDE8F08F000084020020DB
:1023C0008202002010B50B7803704B7843708C7834
:1023D000CB7804EB032343800B7903714B79437172
:1023E0008B798371CB79C371082A16DD0C7A4B7A0D
:1023F00004EB032303818C7ACB7A04EB0323438120
:102400000C7B4B7B04EB032383818B7B8373CB7B24
:10241000C3730B7C03744B7C437410BD0A78027049
:102420004A7842708A788270CA78C2700B794A7989
:1024300003EB022282808A79827170470A780270E7
:102440004A7842708A788270CA78C2700A790271BA
:102450004A7942718A798271CA79C2710A7A0272A2
:10246000704730B513464578032D14D10578AD1E5D
:102470009D4202DC0578AD1E00E01D46ACB2801C1A
:10248000002204E0855C0D70491C951CAAB2A24292
:10249000F8DB00250D7030BD3EB505460C46022028
:1024A00002902846FEF71AFA30B9207820B1207839
:1024B000022801D00220207020780B2875D2DFE896
:1024C00000F006109CC34D687B87598C8D00284610
:1024D000FEF704FA20B101202070642000F0C6F954
:1024E000B3E0D4F880108868804700212846FFF7C1
:1024F0009BF9607180212846FFF796F920712846E4
:10250000FEF7F0F948BBD4F88010C8688047284629
:10251000FEF79AF9C1B22120015504202070212232
:10252000105DD4F8802091698847A0790021CDE919
:1025300000102120035D94F8202021792846FFF720
:1025400065FEA0790021CDE900102120035D94F8FB
:10255000202061792846FFF759FE76E0214628467B
:10256000FFF798FC28B9D4F88010486B8047082002
:1025700020706AE0D4F88010886B8047012807D16A
:10258000E06F214602682846904708B90520207070
:102590005BE0E06F214682682846904702909DF8F4
:1025A000080018B90620207005E04DE09DF80810DD
:1025B0002046FFF78FFA48E0E06F2146C2682846C0
:1025C000904702909DF808102046FFF783FA3CE000
:1025D00021462846FFF74CFB37E036E021462846E7
:1025E000FFF755FAD4F8801048688047E06F04F18F
:1025F000200142682846904727E0D4F880100869F7
:10260000804721462846FFF742FAD4F880104868F0
:102610008047E06F04F12001426828469047284631
:10262000FFF727FA002020700948006801280AD126
:102630000848006838B90020054908606420FEF7A2
:1026400061F802F06DFA00E000BF00BF3EBD00007F
:10265000880100209001002001460020704770B5DD
:1026600006460C4615460021217505216175E58257
:1026700000212183618300231A4621463046FFF75B
:102680006EF970BD70B506460C46154600212175E1
:1026900009216175E58200212183618300231A46A7
:1026A00021463046FFF75BF970BD10B50346187838
:1026B00058700720187099609A8101241C770020B7
:1026C00010BD0020704770477047704770477047D3
:1026D000704710B1012800D000BF704770477047A5
:1026E0000348007810B901200149087070470000C4
:1026F0002802002070477047704770477047704746
:10270000012070471CB5044601210846FEF76EFB08
:102710004FF40070009003208DF8050001208DF823
:10272000040000208DF806008DF807006946064871
:10273000FEF704F84FF400710348FEF773F8C82061
:1027400000F094F81CBD00000000024070B5054682
:102750000C462CB94FF400710448FEF763F804E00E
:102760004FF400710148FEF75FF870BD00000240B1
:1027700038B504464FF4C060FEF71AFB43208DF8CD
:10278000000001208DF8010003208DF802000120D7
:102790008DF803006846FEF7CFFA38BD1CB5044635
:1027A00001210846FEF722FB4FF4C05000900320A1
:1027B0008DF8050002208DF8040000208DF8060039
:1027C0008DF8070069460C48FDF7B8FF0A220B2177
:1027D0000948FDF7FBFF0A220C210748FDF7F6FF29
:1027E00001218803FEF742FB01218020FEF70EFB4A
:1027F00000F004F81CBD00000000024008B50021F4
:102800004FF00060FEF7DEFA4FF4A060FEF7D0FA5A
:102810001C208DF8000001208DF801008DF80200C9
:102820008DF803006846FEF787FA01210846FEF797
:10283000FDFA08BD10B501218807FEF7EAFC88B152
:1028400001218807FEF7D6FC0748006828B1064832
:102850000068401E0449086004E000214FF08040F9
:10286000FEF7CBFC10BD0000DC01002010B50446D3
:1028700001212046FDF7F8FE10BD10B504460221E7
:102880002046FDF7F1FE10BD3EB5044600250020B0
:10289000029001900090207A01283DD1E068806B81
:1028A0000190019820F480300190607A28B101985D
:1028B00020F4801000F5801001900198E168886391
:1028C00000200290E068C0680290029820F040006A
:1028D0000290029820F480000290029820F40030C8
:1028E0000290029820F4002002900298E168C860EB
:1028F000204600F0C7F8E078012843D1009820F086
:102900001E000A300090009820F020002030009037
:102910000098E168886035E0E068C068029002983D
:1029200020F04000403002900298E168C8602046E4
:1029300000F0A8F800200190019820F4803000F504
:1029400080300190019820F4802000F580200190D3
:10295000019820F4002000F500200190019820F457
:10296000001000F500100190607A28B1019820F461
:10297000801000F5801001900198E16888631420B0
:10298000FFF774FFE07801280FD1E06880680090BD
:10299000009820F01E000A300090009820F02000DF
:1029A000203000900098E168886028463EBDFEB562
:1029B0000446002600250020029001900090204649
:1029C000FFF7A0FE0021D4F80C010160207A012855
:1029D00003D1204600F00DFC03E00121204600F069
:1029E00008FC204600F05BFC6069006800900098DD
:1029F00020F004000090009960690160E07A0128ED
:102A00001DD18020E168486202986FF30F0080308A
:102A10000290029880B200F5C00002900298E1682E
:102A2000886201986FF30F00E0300190019880B246
:102A300000F5C00001900198E168C1F80001102183
:102A4000204600F021F9204600F0F8F800250DE0BE
:102A50004FF0FF3104F1900050F825008160002113
:102A600004F1900050F82500C1606D1C2078A84248
:102A7000EED80121204600F04EF8204600F0A4F8E0
:102A80003046FEBDF8B50446002600250020009023
:102A900000BF0320FFF7F1FEE06800690090681CAA
:102AA00005461349884201D90020F8BD0098C00F9F
:102AB0000028EED00025009820F00100401C009076
:102AC0000098E168086100BFE06800690090681C38
:102AD00005460749884200D904E0009800F001004B
:102AE0000028F1D100BF0320FFF7C7FE3046DCE726
:102AF000400D030008B50146002000220092009A14
:102B000022F00102521C0092CA689268009B9A430C
:102B1000CB689A6008BD38B505460C460020009089
:102B200021462846FFF712FE284600F088FB009059
:102B30000098C0F3003058B9012C09D1009820F456
:102B4000805000F5805000900099D5F8CC000160CD
:102B50000098C0F3003040B13CB9009820F4805098
:102B600000900099D5F8CC000160C820FFF77EFEE8
:102B700038BD08B500210091491EC26851606FF050
:102B80008041C2685161009921F0004101F100418A
:102B90000091009921F4006101F500610091009914
:102BA000C268916108BD08B501460020002200926C
:102BB000009A22F00102521C0092CA689268009B9F
:102BC0001A43CB689A6008BD38B50446002500203A
:102BD0000090E1688861401EE16848612046FFF787
:102BE000C8FFE07820B9009820F010001030009065
:102BF000009820F0807000F180700090009820F024
:102C0000007000F100700090009820F0005000F17A
:102C100000500090009820F00800083000900098C4
:102C200020F4001000F500100090E0688069009921
:102C300088430843E1688861284638BDF8B50446F2
:102C40000025002600200090009820F01000103091
:102C500000900098E168086100BFE068006900909A
:102C6000701C06460749884200D904E00098C0F36A
:102C700000100028F1D100BF0320FFF7FEFD284619
:102C8000F8BD0000400D0300F8B504460D460026CF
:102C9000002700200090009820F0200020300090B5
:102CA000009865F38A1000900098E168086100BF01
:102CB000E06800690090781C07460749884200D9FF
:102CC00004E00098C0F340100028F1D100BF0320B9
:102CD000FFF7D3FD3046F8BD400D03000146C8683C
:102CE000406900F0010070471CB502460020002337
:102CF0000093009B23F0004303F100430093012461
:102D0000009B64F3DC43009302F1900353F82130FD
:102D1000009C1C6102F1900353F821301B68019361
:102D2000019B23F0004303F100430193019B23F037
:102D30008043019302F1900353F82130019C1C6001
:102D40001CBD10B586B002460020002303930193FA
:102D500002F1900353F821301B680093009B23F08D
:102D6000004303F100430093009B23F0804303F1F1
:102D700080430093009BC3F3814323B1009BC3F3C3
:102D80008143022B0BD1D368DB6A0393039BC3F30C
:102D900007437BB9009B23F0004300930AE053698B
:102DA0001B690193019BC3F307431BB9009B23F0ED
:102DB0000043009302F1900353F82130009C1C6003
:102DC00006B010BD3FB50246002000230024029447
:102DD00003940194441E009402F1900454F821409D
:102DE000009DA56000240394D478012C04D1039C99
:102DF00024F00404241D039402F56B7404EB4114C5
:102E0000647934B1012C6AD0022C03D0032C38D160
:102E100038E000BF039C24F00104641C0394039C6D
:102E200024F0080408340394039C24F080048034C4
:102E30000394039C24F4806404F580640394039C4D
:102E400024F010041034039402F56B7404EB411465
:102E5000A47834B1039C24F4807404F58074039442
:102E60000FE0039C24F040044034039402F56B749B
:102E700004EB4114247924B1039C24F02004203471
:102E800003944EE0039C24F00104641C0394039C0F
:102E900024F0100410340394039C24F00804083434
:102EA0000394039C24F0800480340394039C24F452
:102EB000806404F580640394039C24F4007404F596
:102EC0000074039402F56B7404EB4114A4782CB1E4
:102ED000039C24F4807404F58074039421E0039C23
:102EE00024F00104641C0394039C24F4007404F58E
:102EF00000740394039C24F020042034039402F50E
:102F00006B7404EB4114A47854B1039C24F0800446
:102F100080340394039C24F4807404F58074039437
:102F200000BF00BF02F1900454F82140039DE5600A
:102F3000012404FA01F35469A4691C435569AC6186
:102F4000029C24F0007404F100740294D468A46913
:102F5000029D2C43D568AC610024019402F56B748A
:102F600004EB41142578019C65F39C54019402F50F
:102F70006B7404EB41146578019C65F3CE240194D5
:102F800002F56B7404EB4114A578019C65F3CF3412
:102F9000019402F56B7404EB4114E478022C01D126
:102FA000012500E00025019C65F35144019402F5E0
:102FB0006B7404EB41146579019C65F393440194AF
:102FC00002F56B7404EB4114E588019C65F30A0477
:102FD000019402F56B7404EB41146479032C05D160
:102FE000019C24F0005404F10054019402F1900477
:102FF00054F82140019D256004B030BD2DE9F04317
:1030000088B004460D464FF00009C8464FF480775B
:10301000002006900790009004F56B7000EB4510BF
:10302000006910B304F56B7000EB4510016904F5FD
:103030006B7000EB4510C0880144491E04F56B70AD
:1030400000EB4510C088B1FBF0F086B2BE420DDD4A
:103050003E4604F56B7000EB4510C188714304F5E2
:103060006B7000EB4510016100E0012604F56B7008
:1030700000EB4510807850B104F56B7000EB451003
:10308000C188714304F56B7000EB4510016104F5D4
:103090006B7000EB45100169069861F31200069011
:1030A000069866F3DC40069004F56B7000EB451063
:1030B000017A069861F35E70069004F1900050F872
:1030C000250006990161E078012809D104F56B70AB
:1030D00000EB4510C16804F1900050F825004161F3
:1030E00004F1900050F8250000680790204600F099
:1030F0008CF8079960F35D710791079820F0004004
:1031000000F100400790079820F08040079004F1FC
:10311000900050F8250007990160E078002864D1FC
:1031200004F56B7000EB4510807800285DD104F544
:103130006B7000EB45100069002856D004F56B70E9
:1031400000EB4510407930B1012821D0022803D08E
:10315000032839D11BE000BFE068C06A039004F582
:103160006B7000EB45100069C01CC0F38F0803981A
:1031700080B240450ADA009820F02000203000900C
:10318000E068806900990843E16888611DE000BF3C
:1031900060690069019004F56B7000EB45100069EF
:1031A000C01CC0F38F08019880B240450BDA00982C
:1031B00020F0806000F180600090E06880690099F4
:1031C0000843E168886100E000BF00BF04F56B7050
:1031D00000EB4510008A83B204F56B7000EB4510DC
:1031E0002A46C168204600F0F3FF484608B0BDE813
:1031F000F08308B5426912680092009A61F30102F7
:103200000092009B4269136008BD014648698068CE
:1032100000F0010080F00100704700B50246104642
:10322000FFF75CFD012800D100BD0020FCE701464E
:103230000020CA685069CA6892691040704708B592
:103240000146D1F8CC0000680090009820F00400FE
:103250000090009820F002000090009820F00800F4
:103260000090009820F020000090009808BD0146D2
:10327000486940697047F0B503460024D01CC71761
:1032800000EB9777BD10D3F8D06000BF03E0306843
:103290000860641C091DAC42F9D30846F0BD38B57E
:1032A00004462046FFF7CBFF0090009820F4807082
:1032B00000F5807000900099D4F8CC0001600A20DD
:1032C000FFF7D4FA009820F4807000900099D4F8A9
:1032D000CC0001601420FFF7C9FA012038BD0000BE
:1032E00070B502460C46002300200025D57001254C
:1032F000957040259580012C0CD14FF0A0430125FD
:10330000D57208251570042555709D15D5800225A8
:1033100015720AE04CB9254B0025D5720C251570A5
:10332000062555704FF4A065D580D36003F5006580
:103330001561002110E003F5106505EB411602F15F
:10334000180545F8216003F5306505EB411602F1DB
:10335000540545F82160491C55788D42EBD803F59A
:10336000806555614035C2F8CC50002108E003F576
:10337000A06505EB411602F1900545F82160491C56
:1033800015788D42F3D8002108E003F5805505EB50
:10339000013602F1D00545F82160491C15788D42AF
:1033A000F3D803F56065C2F80C5170BD000004400D
:1033B000F8B504460D460026E068C0680090009805
:1033C00020F000500090009820F080400090012DE7
:1033D00006D1009820F0005000F10050009006E067
:1033E0002DB9009820F0804000F1804000900098B6
:1033F000E168C8603220FFF739FA3046F8BD0000B6
:1034000038B50446002000900748006881682046CF
:103410008847009820F0005000F10050009000987C
:10342000E1684861012038BD7C0200200CB50146EE
:10343000D1F8900000680090009820F0004000F162
:1034400000400090009820F0804000F18040009003
:10345000009AD1F89000026000200190019820F4B9
:10346000001000F5001001900198CA685061012019
:103470000CBD7CB50546002400262846FFF7F7FE64
:10348000019000BF1BE0019880B20121A1400840DB
:10349000A0B105F1900050F8240000680090009859
:1034A000C0F3C03028B12146284600F00DF806438D
:1034B00004E02146284600F01CFA0643641C2878E4
:1034C000A042E0D830467CBD70B586B005460C46BB
:1034D00005F1900050F82460B0680590F068049001
:1034E000DDE904100840059005F1900050F8240033
:1034F00000680390002004900598C0F38000D0B1CC
:1035000000200190019820F00400001D0190019816
:10351000B06005F1900050F82400C0680190019857
:1035200020F00200801C019005F1900050F824006A
:103530000199C16073E00598C0F3401048B10020C4
:103540000190019820F02000203001900198B06097
:1035500065E00598C0F3C00078B305F1900050F81D
:103560002400C0680190019820F00200801C0190A6
:1035700005F1900050F824000199C160052105F57E
:103580006370015500200190019820F01000103068
:1035900001900198B06000200190019820F008008F
:1035A000083001900198B060059820F01000059057
:1035B000E1B22846FFF7C5FB31E0FFE70598C0F30D
:1035C000802060B305F1900050F82400C06801909D
:1035D000019820F00200801C019005F1900050F845
:1035E00024000199C160E1B22846FFF7AAFB002040
:1035F0000190019820F01000103001900198B06007
:10360000082105F56370015500200190019820F410
:10361000806000F5806001900198B06000BF05985F
:10362000C0F34020F8B105F1900050F82400C068C4
:103630000190019820F00200801C019005F190009B
:1036400050F824000199C160E1B22846FFF779FBE8
:1036500000200190019820F4007000F500700190A6
:103660000198B06042E1059800F00100002871D097
:10367000E878012812D105F1900050F82400006983
:10368000029005F56B7000EB441000690299C1F3DC
:103690001201411A05F5547040F82410012105F576
:1036A000637001550021783840F824100020019003
:1036B000019820F00100401C01900198B06003982F
:1036C000C0F3814020B10398C0F3814002282AD181
:1036D00005F1900050F82400C0680190019820F096
:1036E0000200801C019005F1900050F8240001991F
:1036F000C160E1B22846FFF724FB00200190019849
:1037000020F01000103001900198B06005F56B704A
:1037100000EB4410007E80F0010105F56B7000EBBA
:1037200044100176E2E00398C0F38140032899D168
:10373000039820F0005000F10050039005F1900034
:1037400050F8240003990160012105F29B300155D6
:10375000CCE0FFE70598C0F34000002851D005F108
:10376000900050F82400C0680190019820F00200F9
:10377000019005F1900050F824000199C16005F511
:103780006370005D012804D1012105F29B300155D1
:103790002DE005F56370005D052804D1042105F2D4
:1037A0009B30015523E005F56370005D062804D0C9
:1037B00005F56370005D082808D1002105F5457006
:1037C00040F8241003218730015510E00398C0F31E
:1037D000814003280BD105F56B7000EB4410007E8F
:1037E00080F0010105F56B7000EB441001760020BC
:1037F0000190019820F00200801C01900198B060B7
:1038000074E00598C0F3C01040B305F1900050F883
:103810002400C0680190019820F00200801C0190F3
:1038200005F1900050F824000199C16005F545703C
:1038300050F82410491C40F8241006217830015516
:10384000E1B22846FFF77DFA00200190019820F0B0
:103850008000803001900198B06047E00598C0F387
:103860000010E8B30398C0F38140032815D105F197
:10387000900050F82400C0680190019820F00200E8
:10388000801C019005F1900050F824000199C1605E
:10389000E1B22846FFF755FA18E00398C0F38140DB
:1038A00020B10398C0F3814002280FD1039820F083
:1038B000004000F100400390039820F08040039006
:1038C00005F1900050F8240003990160032105F5EB
:1038D0006370015500200190019820F0100000E075
:1038E00004E0103001900198B06000BF012006B0E4
:1038F00070BD7FB505460C4605F1900050F8246078
:10390000B0680390F0680290DDE90210084003906F
:1039100005F1900050F82400006801900398C0F36E
:103920008000D0B100200090009820F00400001D1D
:1039300000900098B06005F1900050F82400C06835
:103940000090009820F00200801C009005F190008B
:1039500050F824000099C160B0E10398C0F3401012
:1039600048B100200090009820F020002030009006
:103970000098B060A2E10398C0F34020F8B105F1CF
:10398000900050F82400C0680090009820F00200D9
:10399000801C009005F1900050F824000099C1604F
:1039A000E1B22846FFF7CDF900200090009820F4FE
:1039B000007000F5007000900098B0607EE1039800
:1039C00000F0010038B3002105F5457040F82410DF
:1039D00005F1900050F82400C0680090009820F095
:1039E0000200801C009005F1900050F8240000991E
:1039F000C160E1B22846FFF7A4F9002000900098CA
:103A000020F00100401C00900098B060012105F5F5
:103A10006370015552E10398C0F3C00010B3002059
:103A20000090009820F00800083000900098B060E6
:103A300005F1900050F82400C0680090009820F034
:103A40000200801C009005F1900050F824000099BD
:103A5000C160E1B22846FFF774F9052105F56370EE
:103A600001552BE10398C0F3001038B3002105F590
:103A7000457040F8241005F1900050F82400C0680B
:103A80000090009820F00200801C009005F190004A
:103A900050F824000099C160E1B22846FFF751F9BF
:103AA00000200090009820F0100010300090009846
:103AB000B060032105F563700155FFE00398C0F382
:103AC000C01040B305F1900050F82400C068009089
:103AD000009820F00200801C009005F1900050F842
:103AE00024000099C160E1B22846FFF72AF905F5E4
:103AF000457050F82410491C40F8241006217830F5
:103B0000015500200090009820F080008030009047
:103B10000098B060D2E00398C0F3801038B3002161
:103B200005F5457040F8241005F1900050F8240088
:103B3000C0680090009820F00200801C009005F101
:103B4000900050F824000099C160E1B22846FFF7C8
:103B5000F8F800200090009820F0400040300090DD
:103B60000098B060042105F563700155A6E0039844
:103B7000C0F3802060B305F1900050F82400C068C5
:103B80000090009820F00200801C009005F1900049
:103B900050F824000099C160E1B22846FFF7D1F83F
:103BA00000200090009820F0100010300090009845
:103BB000B060082105F56370015500200090009861
:103BC00020F4806000F5806000900098B06075E09F
:103BD0000398C0F34000002870D005F1900050F821
:103BE0002400C0680090009820F00200009005F1C9
:103BF000900050F824000099C16005F56370005DE5
:103C0000012815D1012105F29B3001550198C0F31F
:103C10008140022848D105F56B7000EB4410407ECE
:103C200080F0010105F56B7000EB441041763BE03C
:103C300005F56370005D032804D1022105F29B3075
:103C4000015531E005F56370005D04280FD105F5DD
:103C50006B7000EB44100079012803D1E1B22846D3
:103C6000FFF742F8022105F29B3001551CE005F5F3
:103C70006370005D052804D1042105F29B300155D5
:103C800012E005F56370005D06280DD105F545705D
:103C900050F82400032807D1032105F29B30015579
:103CA0000021873840F8241000200090009820F070
:103CB0000200801C00900098B06000BF012004B09A
:103CC00070BD7FB50446E068C06A00900198C0F3FB
:103CD000C30104F56B7000EB41100069C01CC0F318
:103CE0008F0673E04FF6FF71009801EA8005019896
:103CF000C0F3C30104F56B7000EB41100069A842EA
:103D000015D20198C0F3C30104F56B7000EB4110AC
:103D1000008A85B200200390039820F02000203014
:103D20000390E068806903998843E168886101989D
:103D3000C0F3C30104F56B7000EB41100069C01CB7
:103D4000C0F38F060198C0F3C302C0F3C30304F5A8
:103D50006B7000EB43102B46C168204600F038FA28
:103D60000198C0F3C30104F56B7000EB4110C0680B
:103D700041190198C0F3C30204F56B7000EB4210C7
:103D8000C1600198C0F3C30104F56B7000EB4110F2
:103D90000069411B0198C0F3C30204F56B7000EB8E
:103DA000421001610198C0F3C30104F56B7000EB90
:103DB0004110406941190198C0F3C30204F56B70CA
:103DC00000EB42104161E068C06A0090009880B248
:103DD000B0420ADD0198C0F3C30104F56B7000EB3B
:103DE0004110006900287FF47DAF012004B070BD50
:103DF000FEB50446002600250020009002900190A8
:103E0000D4F8CC0000680290D4F8CC00006801908F
:103E1000019820F004000190019820F00200019028
:103E2000019820F008000190019820F020000190F6
:103E30000298C0F3400058B1019820F00200801CA5
:103E400001903248006841682046884745F00105E6
:103E50000298C0F3C000002842D0019820F008006A
:103E6000083001900298C0F38000002838D027481D
:103E700000684168204688470298C0F34140022804
:103E800004D00298C0F34140012828D1606900683D
:103E900000900298C0F34140022811D141F27071A4
:103EA00060694160009800F00300022818D0207A71
:103EB000022803D102212046FFF79BF901260FE0DB
:103EC0004BF6803160694160009800F003000128E2
:103ED00006D001212046FFF78CF9012600E00126DB
:103EE0000298C0F3401030B1019820F0200020303B
:103EF000019045F0010516B12046FFF7D0F9019970
:103F0000D4F8CC0001602846FEBD00007C020020F1
:103F1000FEB504466069006900900198C0F3C301D2
:103F200004F56B7000EB41100069C01CC0F38F06F4
:103F300074E04FF6FF71009801EA80050198C0F324
:103F4000C30104F56B7000EB41100069A84216D262
:103F50000198C0F3C30104F56B7000EB4110008AB7
:103F600085B200200290029820F0806000F180600D
:103F70000290E068806902998843E168886101984D
:103F8000C0F3C30104F56B7000EB41100069C01C65
:103F9000C0F38F060198C0F3C302C0F3C30304F556
:103FA0006B7000EB43102B46C168204600F010F9FF
:103FB0000198C0F3C30104F56B7000EB4110C068B9
:103FC00041190198C0F3C30204F56B7000EB421075
:103FD000C1600198C0F3C30104F56B7000EB4110A0
:103FE0000069411B0198C0F3C30204F56B7000EB3C
:103FF000421001610198C0F3C30104F56B7000EB3E
:104000004110406941190198C0F3C30204F56B7077
:1040100000EB42104161606900690090009880B235
:10402000B0420ADD0198C0F3C30104F56B7000EBE8
:104030004110006900287FF47CAF0120FEBD30B53F
:1040400085B00446002000900390039820F01000F3
:1040500010300390E068806903998843E1688861C3
:10406000E068006A0490049800F00F00009004F1EA
:1040700090009DF8001050F821000068019004980D
:10408000C0F34340022806D0032878D0052877D013
:10409000072873D175E00498C0F30A10002869DD81
:1040A00004F56B709DF8001000EB4110C06800280B
:1040B00060D00498C0F30A1204F56B709DF80030CC
:1040C00000EB4310C1682046FFF7D5F8049800F0D4
:1040D0000F0104F56B7000EB4110C0680499C1F347
:1040E0000A110144049800F00F0204F56B7000EB14
:1040F0004210C160049800F00F0104F56B7000EBF2
:10410000411040690499C1F30A110144049800F078
:104110000F0204F56B7000EB4210416104F56B7007
:104120009DF8001000EB4110456904F554709DF8AE
:10413000001040F8215004F190009DF8001050F854
:104140002100006902900298C0F3C940002811DDE7
:10415000019820F0004000F100400190019820F00B
:104160008040019004F190009DF80020019950F8E2
:104170002200016006E002E002E0FFE700BF00BFAE
:1041800000BF00BF00BF039820F010001030039064
:10419000E068806903990843E1688861012005B0FF
:1041A00030BD000038B50446002000900748006884
:1041B000016820468847009820F0080008300090E9
:1041C0000098E1684861012038BD00007C020020B1
:1041D0002DE9F04104460026E078B0B90027002020
:1041E000DD1C4FEAE57805EB98784FEAA80704F163
:1041F000D00555F822C000BF04E00D68CCF800508F
:10420000401C091DB842F8D300BF3046BDE8F0811C
:1042100000BFFEE7074905E0081EA1F1010101D139
:10422000012070470448008800F002000028F3D104
:1042300000BFF6E70024F400185400400146074A86
:1042400005E0101EA2F1010201D1012070470448CF
:10425000008808408842F4D10020F7E70024F400E9
:104260001454004070B504460D461D4E01211D48F2
:10427000FCF781FB00BF00BF1B491A48FCF75AFB43
:104280000028F9D00022D4211648FCF715FD144E61
:1042900000BF16491348FCF74DFB0028F9D0E1B2E6
:1042A0001048FCF711FD0E4E00BF1049891C0D4847
:1042B000FCF740FB0028F8D029460A48FCF704FD2B
:1042C000074E00BF0949891C0648FCF733FB00284C
:1042D000F8D001210348FCF75AFB002070BD000014
:1042E000A086010000540040010003008200070086
:1042F00002E008C8121F08C1002AFAD170477047AF
:10430000002001E001C1121F002AFBD1704700000C
:104310001CB501210846FCF769FD4FF48070009040
:1043200003208DF8050001208DF8040000208DF891
:1043300006008DF8070069462048FCF7FFF90121C7
:104340000220FCF753FD4CF22110009003208DF861
:10435000050001208DF8040000208DF806008DF87E
:10436000070069461648FCF7E9F9C02000900320D1
:104370008DF8050002208DF8040001208DF806005C
:1043800000208DF8070069460D48FCF7D7F9012198
:104390000420FCF72BFD4FF4C040009003208DF863
:1043A000050001208DF8040000208DF806008DF82E
:1043B000070069460348FCF7C1F91CBD0000024034
:1043C00000040240000802402DE9F04104460D4679
:1043D00016461F46E2B24FF480410B48FCF72AFA1A
:1043E000EAB24FF400510848FCF724FAF2B24FF455
:1043F00080710648FCF71EFAFAB220210348FCF748
:1044000019FABDE8F08100000008024000040240F3
:1044100086B0002401A8FCF739FD4FF47A720298A7
:10442000B0FBF2F1B1F1807F00D31DE021F07F40BD
:10443000401E4FF0E022506150170F22002807DA8B
:1044400013071E0E614B00F00F052D1F5E5503E094
:1044500013071D0E5E4B1D5400BF00204FF0E022DD
:1044600090610720106100BF5A495B48FDF70FFBC0
:104470005A485B4B574A012100905748FDF71EFEF2
:10448000FFF746FFFCF704FBFCF72EFCFCF746F9B0
:104490000A20FCF737F997E00020FCF769FD10BB14
:1044A00000BF0020FCF764FD0028FAD000BF002008
:1044B000FCF75EFD0028FAD04A48006818B90120D0
:1044C0004849086002E00020464908604548006805
:1044D000012804D100F0CAF86420FCF713F9002089
:1044E0004149086002E000203F4908603D480068FB
:1044F000012843D137493848FDF7CEFFFDF732F99F
:104500003A4908600846006860BB3948006820B92D
:1045100000203849086038490860012034490860A3
:1045200005A8FBF78FFE0546294605A8FBF761FEA7
:10453000002032490880022205A92748FDF718F912
:104540002E49088008460088002802DD01202C49F9
:1045500008602B480068012804D1402229492A48D4
:10456000FBF72EFE01208DF8140000208DF81500B9
:10457000022205A91848FDF745F901E000F048F8C6
:104580000120FCF7BFF800F0DBF82046641CC828C7
:104590001ADB1E48006801280AD100231A46194672
:1045A0001846FFF711FFB4F5C87F0DDB00240BE0C0
:1045B0001648006840B90B48006828B901231A461C
:1045C00019461846FFF700FF66E7000018ED00E007
:1045D00000E400E03408002088020020E001002010
:1045E00034020020C0010020BC010020C8010020CE
:1045F00088010020D4010020B4010020CC0100205B
:10460000C4010020CA0A00200A0B0020B0010020CB
:1046100010B500224FF480710F48FCF70BF900220F
:104620004FF400410D48FCF705F900224FF480419A
:104630000A48FCF7FFF8002201210848FCF7FAF8C5
:1046400007490848FCF7E8FF05490648FDF71FFA47
:1046500000200549086010BD00000240000402402F
:104660003408002088020020C00100201CB5234926
:104670002348FCF7D1FF012211022248FCF7DAF8A7
:104680000122D1032048FCF7D5F8012291031E48EE
:10469000FCF7D0F8012211461B48FCF7CBF817496C
:1046A0001748FDF7F4F96420FCF72CF81748184B6D
:1046B000124A012100901248FDF700FD0F491048F1
:1046C000FCF7AAFF6420FCF71DF812481249134BAF
:1046D000134ACDE9001013491348FCF749FF642041
:1046E000FCF710F8002011490860114908601149D1
:1046F000086011490860114908601CBD3408002099
:10470000880200200000024000040240E001002076
:10471000340200204301002000010020C0000020DE
:1047200080000020400000200000002090010020B8
:10473000D4010020B4010020C40100208801002021
:1047400070B52DED048B0724012500269FEDD50AB9
:10475000D54880ED000A0020D44908600123D448E0
:10476000022102686A20FCF777FAD0490860F1213B
:104770000220FFF777FD0123CD48022102686A205D
:10478000FCF76AFAC94908600123C9480E2102688A
:104790006A20FCF761FAC54908600921C548FBF7A2
:1047A00028FD0AE0C1480068284008B1012000E067
:1047B0000020C04908556D00641E002CF2D1BD4890
:1047C000C079012811D1B8480068FBF7E9FD41EC38
:1047D000190B9FEDB90B53EC102BFBF73AFD41EC95
:1047E000180BFBF721FEB0490860B2488079012818
:1047F00011D1AD480068FBF7D3FD41EC190B9FEDDB
:10480000B00B53EC102BFBF724FD41EC180BFBF71E
:104810000BFEA5490860A7484079012811D1A2489C
:104820000068FBF7BDFD41EC190B9FEDA70B53ECA6
:10483000102BFBF70EFD41EC180BFBF7F5FD9A4929
:1048400008609C480079012811D197480068FBF75F
:10485000A7FD41EC190B9FED9E0B53EC102BFBF7C2
:10486000F8FC41EC180BFBF7DFFD8F49086091481D
:10487000C078012811D18C480068FBF791FD41EC0C
:10488000190B9FED950B53EC102BFBF7E2FC41EC61
:10489000180BFBF7C9FD8449086086488078012819
:1048A00011D181480068FBF77BFD41EC190B9FEDAE
:1048B0008C0B53EC102BFBF7CCFC41EC180BFBF7EB
:1048C000B3FD794908607B484078012811D17648CA
:1048D0000068FBF765FD41EC190B9FED830B53EC72
:1048E000102BFBF7B6FC41EC180BFBF79DFD6E4956
:1048F000086001206F4908706B480068FBF750FDA5
:1049000041EC180B9FED7A0B53EC102BFBF774FD69
:104910001AD865480068FBF743FD41EC180B9FED82
:10492000760B53EC102BFBF74FFD0DD2744800684B
:10493000012803D073480068012805D10023012213
:1049400011461046FFF740FD57480068FBF728FD69
:1049500041EC180B9FED680B53EC102BFBF74CFD53
:104960001AD851480068FBF71BFD41EC180B9FED6E
:10497000660B53EC102BFBF727FD0DD26048006847
:10498000012803D05F480068012805D100231A469A
:1049900001210846FFF718FD43480068FBF700FDBA
:1049A00041EC180B9FED580B53EC102BFBF724FD3B
:1049B0001AD83D480068FBF7F3FC41EC180B9FED5B
:1049C000540B53EC102BFBF7FFFC0DD24C48006846
:1049D000012803D04B480068012805D100231A465E
:1049E00019460120FFF7F0FC2F480068FBF7D8FCC0
:1049F00041EC180B9FED460B53EC102BFBF7FCFC26
:104A00001AD829480068FBF7CBFC41EC180B9FED46
:104A1000420B53EC102BFBF7D7FC0DD23848006843
:104A2000012803D037480068012805D100231A4621
:104A300019461846FFF7C8FC01231D480B210268E0
:104A40006A20FCF709F91949086009211948FBF7A0
:104A5000D0FB072401250AE014480068284008B16B
:104A6000012000E00020134908556D00641E002C51
:104A7000F2D11048C07830B90E48007918B900203A
:104A80001F4908600BE001201D49086001231A46F8
:104A900019461846FFF798FC012019490860BDEC3B
:104AA000048B70BD33331340AC010020980100200B
:104AB000940100209C0100207B14AE47E17A943FD2
:104AC0007B14AE47E17AA43F7B14AE47E17AB43F52
:104AD0007B14AE47E17AC43F7B14AE47E17AD43F02
:104AE0007B14AE47E17AE43F7B14AE47E17AF43FB2
:104AF0003333333333330740CDCCCCCCCCCC09402B
:104B0000B0010020C00100206666666666660C4043
:104B10000000000000000F40CDCCCCCCCCCC10402D
:104B20001CB52B492B48FCF777FD00224FF4807110
:104B30002948FBF77FFE00224FF400412748FBF78E
:104B400079FE00224FF480412448FBF773FE0022D7
:104B500001212248FBF76EFE0A20FBF7D3FD01225C
:104B600011021D48FBF766FE0122D1031B48FBF72B
:104B700061FE012291031948FBF75CFE01221146F8
:104B80001648FBF757FE12491248FCF780FF0A202F
:104B9000FBF7B8FD1248134B0D4A012100900D4858
:104BA000FDF78CFA0A490B48FCF736FD0A20FBF7A3
:104BB000A9FD0D480D490E4B0E4ACDE900100E49D6
:104BC0000E48FCF7D5FC0A20FBF79CFD1CBD00003D
:104BD0003408002088020020000002400004024047
:104BE000E0010020340200204301002000010020E9
:104BF000C0000020800000204000002000000020B5
:104C000000100020004000800800000008000000A4
:104C10000800000008000000010000000100000082
:104C20000100000006000000484C000800000020C1
:104C30008802000010060008444D00088802002089
:104C4000C80E000000430008000D344C75636B79FA
:104C50005F436861726765000A37506F776572421B
:104C6000616E6B1E546869732003080F286120630E
:104C70007573746F6D206D657373618C043D312E97
:104C800030181968747470733A2F2F706C61792E14
:104C9000676F6F676C652E636F6D2F8C181472656C
:104CA0002F617070732F64657461696C733F696400
:104CB0003D1A10122E6A66742E76747326686C3D47
:104CC000656E5F494E000A40393837363534313227
:104CD00033F201093CDA6113E1261B08C9041ACD3D
:104CE000041AFB041ACF041AF7041AD3041ADD04B9
:104CF0001ACB041AC7041AF5041AF9041AFD041A87
:104D0000DF041301271B08C3081AD1041AFF04C1CA
:104D1000136D161B08190413E5121C0899141CBC0A
:104D20000C02400411290459D42C02030404450642
:104D30000708091A594C1B0D1994121A140870020D
:044D400082200000CD
:040000050800018965
:00000001FF
